:1000000012EF08F053554E004D4F4E005455450029
:100010005745440054485500465249005341540046
:100020004A414E00464542004D4152004150520067
:100030004D4159004A554E004A554C004155470024
:10004000534550004F4354004E4F56004445430023
:10005000574239495853205554430000434C4F43AD
:100060004B0055542020203A2020000043542020EB
:10007000203A20203A2020004872732061726520C7
:100080003234687220666F726D617400487273203A
:100090006172652043542074696D65205554430096
:1000A00074696D65206973206175746F6D61746921
:1000B000630020486F757273203D2D3E202575002A
:1000C0005365632773206172652073657420746FB4
:1000D000203020007768656E206D696E277320617F
:1000E00072652073617665640000204D696E7574D9
:1000F0006573203D2D3E20257500313D53756E32D0
:100100003D4D6F6E333D547565343D576564000059
:10011000353D546875363D467269373D536174000C
:10012000446179203D2D3E257500456E7465722031
:100130006D6F6E746820312D31320000204D6F6E6E
:100140007468203D2D3E25750000456E7465722053
:100150004461746520312D33310020446174652081
:100160003D2D3E257500486F7572732D3E25750037
:10017000204D696E2D3E00002020574239495853CA
:100180002055544320434C4F434B202000009EA851
:10019000FED7AD6E1200EA6A120EE96EEF500EE065
:1001A000010E016E006A002EFED7012EFBD74A0E0B
:1001B000006E002EFED700D0EF2EF2D712000900FD
:1001C000F5520DE0F6CF11F0F7CF12F0F5509EA8E2
:1001D000FED7AD6E11C0F6FF12C0F7FFF0D71200C8
:1001E000FE0ED5DF450ED3DF050ED1DF500EF66EC5
:1001F000000EF76EE4DFFE0ECADF450EC8DF470EC5
:10020000C6DF5C0EF66E000EF76ED9DFFE0EBFDFA6
:10021000450EBDDF140EBBDF620EF66E000EF76EEC
:10022000CEDFFE0EB4DF450EB2DF1D0EB0DF6C0E6A
:10023000F66E000EF76EC3DF1200080E016E030E9D
:10024000006E002EFED78B969496030E006E002E45
:10025000FED711368B98D8B09488D8A094989486FD
:1002600082A6FED7012EEBD7030E006E002EFED71E
:100270008B96949600009488030E006E002EFED795
:10028000030E006E002EFED7948682A6FED7016A6A
:10029000030E006E002EFED782B801808B969496D6
:1002A0008B9894981200080E126E00C013F0948878
:1002B000030E006E002EFED7948682A6FED782B86B
:1002C000D88082A8D8900136030E006E002EFED78B
:1002D00094968B96122EEBD79488030E006E002E08
:1002E000FED78B981350D8A494980000948682A6C9
:1002F000FED7030E006E002EFED78B969496030E4B
:10030000006E002EFED78B98949812009488030EEE
:10031000006E002EFED79486030E006E002EFED7D0
:100320008B989498030E006E002EFED78B969496B1
:10033000D00E116E82DF116A80DF9488030E006E8A
:10034000002EFED79486030E006E002EFED782A6E6
:10035000FED78B989498030E006E002EFED78B96D6
:100360009496D10E116E69DF010E006E9CDF01C004
:1003700004F0010E006E97DF01C005F0010E006E63
:1003800092DF01C006F0010E006E8DDF01C00AF0A1
:10039000010E006E88DF01C007F0010E006E83DFE2
:1003A00001C008F0006A7FDF01C009F094980000E6
:1003B000948682A6FED7030E006E002EFED700D0D4
:1003C00000009488030E006E002EFED70A0E126EF7
:1003D000E2DE5AEF08F01450016A135C03E213C026
:1003E00000F00CD0006A080E156E1336003614505B
:1003F000005CD8B0006E0136152EF7D71200015000
:1004000011C013F0640E146EE6DF00C011F001504D
:10041000300E07E112A20DD012B60BD012B8200E8A
:1004200003D0129612981280012601509EA8FED782
:10043000AD6E11C013F00A0E146ECDDF00C011F0C6
:100440000150300E06E112B609D012A007D012B842
:10045000200E012601509EA8FED7AD6E300E11264B
:1004600011509EA8FED7AD6E12000438006E0F0E1C
:10047000001600500A0DF3CF11F004500F0B112499
:10048000046E0538006E0F0E001600500A0DF3CFF3
:1004900011F005500F0B1124056E0638006E0F0E7B
:1004A000001600500A0DF3CF11F006500F0B112467
:1004B000066E0738006E0F0E001600500A0DF3CFBF
:1004C00011F007500F0B1124076E0838006E0F0E45
:1004D000001600500A0DF3CF11F008500F0B112435
:1004E000086E0938006E0F0E001600500A0DF3CF8B
:1004F00011F009500F0B1124096E060E06240B6E25
:100500000650110806E20650180803E3120E065CB6
:100510000B6E0B50090813E3FE0E39DE450E37DE75
:10052000170E35DE300E9EA8FED7AD6EFE0E2FDE06
:10053000180E2DDE0BC011F01B0E126E60DF0B507B
:1005400009080BE2FE0E23DE450E21DE170E1FDE2C
:100550000BC011F01B0E126E52DF0550090815E397
:10056000FE0E15DE450E13DE1A0E11DE300E9EA8AD
:10057000FED7AD6EFE0E0BDE450E09DE1B0E07DE4E
:1005800005C011F01B0E126E3ADF055009080BE290
:10059000FE0EFDDD450EFBDD1A0EF9DD05C011F086
:1005A0001B0E126E2CDF0650090813E3FE0EEFDD62
:1005B000450EEDDD200EEBDD300E9EA8FED7AD6EB4
:1005C000FE0EE5DD230EE3DD06C011F01B0E126EFC
:1005D00016DF065009080BE2FE0ED9DD450ED7DD09
:1005E000200ED5DD06C011F01B0E126E08DF05507F
:1005F000090815E3FE0ECBDD450EC9DD230EC7DD70
:10060000300E9EA8FED7AD6EFE0EC1DD450EBFDDDD
:10061000240EBDDD05C011F01B0E126EF0DE05507C
:1006200009080BE2FE0EB3DD450EB1DD230EAFDD92
:1006300005C011F01B0E126EE2DE0450090815E32E
:10064000FE0EA5DD450EA3DD260EA1DD300E9EA813
:10065000FED7AD6EFE0E9BDD450E99DD270E97DDB4
:1006600004C011F01B0E126ECADE045009080BE222
:10067000FE0E8DDD450E8BDD260E89DD04C011F0EA
:100680001B0E126EBCDEFE0E82DD450E80DD590EA5
:100690007EDD0A2C05D0040EF66E000EF76E8FDD9F
:1006A0000A50020805E1080EF66E000EF76E87DDAF
:1006B0000A50030805E10C0EF66E000EF76E7FDDA2
:1006C0000A50040805E1100EF66E000EF76E77DD95
:1006D0000A50050805E1140EF66E000EF76E6FDD88
:1006E0000A50060805E1180EF66E000EF76E67DD7B
:1006F0000A50070805E11C0EF66E000EF76E5FDD6E
:10070000FE0E45DD450E43DD5D0E41DD082C05D0B6
:10071000200EF66E000EF76E52DD0850020805E15D
:10072000240EF66E000EF76E4ADD0850030805E150
:10073000280EF66E000EF76E42DD0850040805E143
:100740002C0EF66E000EF76E3ADD0850050805E136
:10075000300EF66E000EF76E32DD0850060805E129
:10076000340EF66E000EF76E2ADD0850070805E11C
:10077000380EF66E000EF76E22DD0850080805E10F
:100780003C0EF66E000EF76E1ADD0850090805E102
:10079000400EF66E000EF76E12DD08500A0805E1F5
:1007A000440EF66E000EF76E0ADD08500B0805E1E8
:1007B000480EF66E000EF76E02DD08500C0805E1DB
:1007C0004C0EF66E000EF76EFADCFE0EE0DC450E07
:1007D000DEDC600EDCDC200E9EA8FED7AD6E07C00E
:1007E00011F01B0E126E0BDE200E9EA8FED7AD6E12
:1007F000200E9EA8FED7AD6E5FEF04F09488030E26
:10080000006E002EFED79486030E006E002EFED7DB
:100810008B989498030E006E002EFED78B969496BC
:10082000D00E116E0ADD116A08DD9488030E006E89
:10083000002EFED79486030E006E002EFED782A6F1
:10084000FED78B989498030E006E002EFED78B96E1
:100850009496D10E116EF1DC010E006E24DD01C004
:1008600004F0010E006E1FDD01C005F0010E006EE8
:100870001ADD01C006F0010E006E15DD01C00AF0A0
:10088000010E006E10DD01C007F0010E006E0BDDE1
:1008900001C008F0006A07DD01C009F0949800006B
:1008A000948682A6FED7030E006E002EFED700D0DF
:1008B00000009488030E006E002EFED7D6D5640E7D
:1008C000126E69DC5CEF08F00900F6CF12F0F7CF8A
:1008D00013F0F5509EA8FED7AD6E12C0F6FF13C000
:1008E000F7FF112EF1D712009488030E006E002E30
:1008F000FED79486030E006E002EFED78B98949838
:10090000030E006E002EFED78B969496D00E116EBD
:1009100094DC020E116E91DC06C011F08EDC94980E
:100920000000948682A6FED7030E006E002EFED72E
:1009300000D000009488030E006E002EFED70A0E31
:10094000126E29DC31EF06F09488030E006E002E43
:10095000FED79486030E006E002EFED78B989498D7
:10096000030E006E002EFED78B969496D00E116E5D
:1009700064DC010E116E61DC05C011F05EDC949840
:100980000000948682A6FED7030E006E002EFED7CE
:1009900000D000009488030E006E002EFED70A0ED1
:1009A000126ECBEC00F0A8EF06F09488030E006EF8
:1009B000002EFED79486030E006E002EFED78B9875
:1009C0009498030E006E002EFED78B969496D00E50
:1009D000116E33DC116A31DC116A2FDC949800004F
:1009E000948682A6FED7030E006E002EFED700D09E
:1009F00000009488030E006E002EFED70A0E126EC1
:100A0000CBEC00F0A9EF06F09488030E006E002EE8
:100A1000FED79486030E006E002EFED78B98949816
:100A2000030E006E002EFED78B969496D00E116E9C
:100A300004DC030E116E01DC0AC011F01DEC01F0A4
:100A400094980000948682A6FED7030E006E002EB6
:100A5000FED700D000009488030E006E002EFED753
:100A60000A0E126ECBEC00F026EF07F09488030E0E
:100A7000006E002EFED79486030E006E002EFED769
:100A80008B989498030E006E002EFED78B9694964A
:100A9000D00E116E1DEC01F0050E116E1DEC01F073
:100AA00008C011F01DEC01F094980000948682A615
:100AB000FED7030E006E002EFED700D000009488F3
:100AC000030E006E002EFED70A0E126ECBEC00F065
:100AD00094EF07F09488030E006E002EFED79486E4
:100AE000030E006E002EFED78B989498030E006EB6
:100AF000002EFED78B969496D00E116E1DEC01F051
:100B0000040E116E1DEC01F007C011F01DEC01F098
:100B100094980000948682A6FED7030E006E002EE5
:100B2000FED700D000009488030E006E002EFED782
:100B30000A0E126ECBEC00F0FEEF07F0010E0E6E07
:100B400093688150070B0F6E020E116EFA0E126E33
:100B5000CBEC00F0112EFAD70F50070A0DE0010A76
:100B6000D8B48FD0030AD8B404D1010AD8B47ED146
:100B7000070AD8B4E9D152D2010E106EFE0EC7ECAE
:100B800000F0510EC7EC00F00E52D8B47AD0FE0E31
:100B9000C7EC00F0450EC7EC00F0000EC7EC00F00B
:100BA000780EF66E000EF76EDFEC00F0FE0EC7EC6E
:100BB00000F0450EC7EC00F0400EC7EC00F08C0EC4
:100BC000F66E000EF76EDFEC00F0FE0EC7EC00F0E4
:100BD000450EC7EC00F0140EC7EC00F0A00EF66E48
:100BE000000EF76EDFEC00F0FE0EC7EC00F0450ED5
:100BF000C7EC00F0540EC7EC00F0B20EF66E000E1B
:100C0000F76E0B0E116E60DE10C011F01B0E126E2F
:100C1000FFEC01F0640E126ECBEC00F0938881B80B
:100C200005D0102AC80E126ECBEC00F01050180838
:100C300001E2106A938A81BA23D010C013F00A0E21
:100C4000146EEBEC01F00138116EF00E111610C0AD
:100C500013F00A0E146EEBEC01F000501110066E4A
:100C600043D60E6A106AFE0EC7EC00F0510EC7ECB8
:100C700000F0C80E126ECBEC00F0F0EC00F0D0D11A
:100C800083D7FE0EC7EC00F0510EC7EC00F00E52F9
:100C900070E0FE0EC7EC00F0450EC7EC00F0000E51
:100CA000C7EC00F0C00EF66E000EF76EDFEC00F041
:100CB000FE0EC7EC00F0450EC7EC00F0400EC7EC8E
:100CC00000F0D40EF66E000EF76EDFEC00F0640E4E
:100CD000126ECBEC00F0FE0EC7EC00F0450EC7EC38
:100CE00000F0540EC7EC00F0EA0EF66E000EF76E40
:100CF0000D0E116EE9DD10C011F01B0E126EFFEC2F
:100D000001F0640E126ECBEC00F0938881B805D030
:100D1000102AC80E126ECBEC00F010503B0801E216
:100D2000106A938A81BA24D010C013F00A0E146E90
:100D3000EBEC01F00138116EF00E111610C013F03B
:100D40000A0E146EEBEC01F000501110056EFCD58C
:100D50002CD60E6A106AFE0EC7EC00F0510EC7ECDE
:100D600000F0C80E126ECBEC00F0F0EC00F058D1A1
:100D70008ED7010E106EFE0EC7EC00F0510EC7ECC0
:100D800000F0C80E126ECBEC00F00E526FE0FE0EBB
:100D9000C7EC00F0450EC7EC00F0000EC7EC00F009
:100DA000FA0EF66E000EF76EDFEC00F0FE0EC7ECEA
:100DB00000F0450EC7EC00F0400EC7EC00F0100E3E
:100DC000F66E010EF76EDFEC00F0FE0EC7EC00F0E1
:100DD000450EC7EC00F0540EC7EC00F0200EF66E86
:100DE000010EF76E070E116E6FDD10C011F01B0EB5
:100DF000126EFFEC01F0640E126ECBEC00F09388E3
:100E000081B809D0102A020E116E960E126ECBEC2C
:100E100000F0112EFAD71050070801E2106A938AE9
:100E200081BA23D010C013F00A0E146EEBEC01F05F
:100E30000138116EF00E111610C013F00A0E146E68
:100E4000EBEC01F0005011100A6EDED50E6A106A4C
:100E5000FE0EC7EC00F0510EC7EC00F0C80E126E8B
:100E6000CBEC00F0F0EC00F0DBD08FD7010E106E71
:100E7000FE0EC7EC00F0510EC7EC00F0C80E126E6B
:100E8000CBEC00F00E5260E0FE0EC7EC00F0450E19
:100E9000C7EC00F0000EC7EC00F02A0EF66E010E53
:100EA000F76EDFEC00F0FE0EC7EC00F0450EC7EC6D
:100EB00000F0540EC7EC00F03C0EF66E010EF76E1B
:100EC0000A0E116E01DD10C011F01B0E126EFFEC48
:100ED00001F0640E126ECBEC00F0938881B809D05B
:100EE000102A020E116E960E126ECBEC00F0112E2F
:100EF000FAD710500C0801E2106A938A81BA23D005
:100F000010C013F00A0E146EEBEC01F00138116EF4
:100F1000F00E111610C013F00A0E146EEBEC01F077
:100F200000501110086EA2D50E6A106AFE0EC7ECB2
:100F300000F0510EC7EC00F0C80E126ECBEC00F0C2
:100F4000F0EC00F06DD09ED7010E106EFE0EC7ECD7
:100F500000F0510EC7EC00F0C80E126ECBEC00F0A2
:100F60000E525CE0FE0EC7EC00F0450EC7EC00F040
:100F7000000EC7EC00F04A0EF66E010EF76EDFECC5
:100F800000F0FE0EC7EC00F0450EC7EC00F0540E6A
:100F9000C7EC00F05A0EF66E010EF76E090E116ED8
:100FA00093DC10C011F01B0E126EFFEC01F0640E0A
:100FB000126ECBEC00F0938881B805D0102AC80ED1
:100FC000126ECBEC00F010501F0801E2106A938AF9
:100FD00081BA23D010C013F00A0E146EEBEC01F0AE
:100FE0000138116EF00E111610C013F00A0E146EB7
:100FF000EBEC01F000501110076E6CD50E6A106A10
:10100000FE0EC7EC00F0510EC7EC00F0C80E126ED9
:10101000CBEC00F0F0EC00F003D0A2D70E6A106A1F
:1010200060EF08F0F86AD09EB896190EAF6EA60E63
:10103000AC6E900EAB6E0D6A0C6A0E6A106A0F01F0
:10104000386B396B3A6B776A786A796AFE0E000101
:10105000C7EC00F0610EC7EC00F0040EC7EC00F026
:101060000C0E116EFA0E126ECBEC00F0112EFAD7A8
:10107000FE0EC7EC00F0410EC7EC00F0FE0EC7EC10
:1010800000F0510EC7EC00F0FE0EC7EC00F0530E5E
:10109000C7EC00F0080EC7EC00F0FE0EC7EC00F045
:1010A000520EC7EC00F0270EC7EC00F0F0EC00F099
:1010B00086EF01F0FEEF03F0938681B601D03ED5B6
:0410C000F9D7030059
:020000040030CA
:0E00000000E11E3C00BF81000FC00FE00F406A
:00000001FF
;PIC18F26K22
;CRC=C56C  CREATED="01-Mar-24 15:40"
