:1000000031EF09F053554E004D4F4E005455450009
:100010005745440054485500465249005341540046
:100020004A414E00464542004D4152004150520067
:100030004D4159004A554E004A554C004155470024
:10004000534550004F4354004E4F56004445430023
:10005000574239495853205554430000434C4F43AD
:100060004B0055542020203A2020000043542020EB
:10007000203A20203A2020004872732061726520C7
:100080003234687220666F726D617400487273203A
:100090006172652043542074696D65205554430096
:1000A00074696D65206973206175746F6D61746921
:1000B000630020486F757273203D2D3E202575002A
:1000C0005365632773206172652073657420746FB4
:1000D000203020007768656E206D696E277320617F
:1000E00072652073617665640000204D696E7574D9
:1000F0006573203D2D3E20257500313D53756E32D0
:100100003D4D6F6E333D547565343D576564000059
:10011000353D546875363D467269373D536174000C
:10012000446179203D2D3E257500456E7465722031
:100130006D6F6E746820312D31320000204D6F6E6E
:100140007468203D2D3E25750000456E7465722053
:100150004461746520312D33310020446174652081
:100160003D2D3E257500456E746572203620666F04
:100170007220435354200000456E74657220352070
:10018000666F7220445354200000204353545F4450
:1001900053542076616C7565203D2D3E2575000019
:1001A000486F7572732D3E257500204D696E2D3E8A
:1001B00000002020574239495853205554432043CA
:1001C0004C4F434B202000009EA8FED7AD6E12007E
:1001D000EA6A130EE96EEF500EE0010E016E006A3E
:1001E000002EFED7012EFBD74A0E006E002EFED742
:1001F00000D0EF2EF2D712000900F5520DE0F6CF35
:1002000012F0F7CF13F0F5509EA8FED7AD6E12C0D6
:10021000F6FF13C0F7FFF0D71200FE0ED5DF450E34
:10022000D3DF050ED1DF500EF66E000EF76EE4DF61
:10023000FE0ECADF450EC8DF470EC6DF5C0EF66E47
:10024000000EF76ED9DFFE0EBFDF450EBDDF140EC8
:10025000BBDF620EF66E000EF76ECEDFFE0EB4DF71
:10026000450EB2DF1D0EB0DF6C0EF66E000EF76E9F
:10027000C3DF1200080E016E030E006E002EFED7C3
:100280008B969496030E006E002EFED712368B9836
:10029000D8B09488D8A09498948682A6FED7012ED0
:1002A000EBD7030E006E002EFED78B9694960000BF
:1002B0009488030E006E002EFED7030E006E002EF3
:1002C000FED7948682A6FED7016A030E006E002E2A
:1002D000FED782B801808B9694968B9894981200E2
:1002E000080E136E00C014F09488030E006E002EEA
:1002F000FED7948682A6FED782B8D88082A8D890EE
:100300000136030E006E002EFED794968B96132EA8
:10031000EBD79488030E006E002EFED78B981450F6
:10032000D8A494980000948682A6FED7030E006E8F
:10033000002EFED78B969496030E006E002EFED7ED
:100340008B98949812009488030E006E002EFED7AE
:100350009486030E006E002EFED78B989498030EA1
:10036000006E002EFED78B969496D00E126E82DF12
:10037000126A80DF9488030E006E002EFED79486EA
:10038000030E006E002EFED782A6FED78B9894989F
:10039000030E006E002EFED78B969496D10E126E31
:1003A00069DF010E006E9CDF01C004F0010E006EDB
:1003B00097DF01C005F0010E006E92DF01C006F06C
:1003C000010E006E8DDF01C00AF0010E006E88DFA5
:1003D00001C007F0010E006E83DF01C008F0006A63
:1003E0007FDF01C009F094980000948682A6FED7B2
:1003F000030E006E002EFED700D000009488030E7E
:10040000006E002EFED70A0E136EE2DE79EF09F0C1
:100410009488030E006E002EFED79486030E006EA5
:10042000002EFED78B989498030E006E002EFED7F8
:100430008B969496D00E126E1DDF090E126E1ADF87
:100440009488030E006E002EFED79486030E006E75
:10045000002EFED782A6FED78B989498030E006ECE
:10046000002EFED78B969496D10E126E03DF090EE6
:10047000006E36DF01C00CF094980000948682A6CE
:10048000FED7030E006E002EFED700D00000948829
:10049000030E006E002EFED70A0E136E99DE7BEF60
:1004A00009F01550016A145C03E214C000F00CD08E
:1004B000006A080E166E143600361550005CD8B06F
:1004C000006E0136162EF7D71200015012C014F03C
:1004D000640E156EE6DF00C012F00150300E07E129
:1004E00013A20DD013B60BD013B8200E03D0139661
:1004F00013981380012601509EA8FED7AD6E12C03E
:1005000014F00A0E156ECDDF00C012F00150300E4F
:1005100006E113B609D013A007D013B8200E0126A8
:1005200001509EA8FED7AD6E300E122612509EA826
:10053000FED7AD6E12000438006E0F0E001600508C
:100540000A0DF3CF12F004500F0B1224046E05387D
:10055000006E0F0E001600500A0DF3CF12F005507A
:100560000F0B1224056E0638006E0F0E0016005099
:100570000A0DF3CF12F006500F0B1224066E073847
:10058000006E0F0E001600500A0DF3CF12F0075048
:100590000F0B1224076E0838006E0F0E0016005065
:1005A0000A0DF3CF12F008500F0B1224086E093811
:1005B000006E0F0E001600500A0DF3CF12F0095016
:1005C0000F0B1224096E0C5006240B6E0C500608FB
:1005D00009E10650110806E20650180803E3120E5E
:1005E000065C0B6E0C50050809E10650120806E285
:1005F0000650180803E3130E065C0B6E0B50090837
:1006000013E3FE0EE1DD450EDFDD170EDDDD300EFE
:100610009EA8FED7AD6EFE0ED7DD180ED5DD0BC041
:1006200012F01B0E136E51DF0B5009080BE2FE0E89
:10063000CBDD450EC9DD170EC7DD0BC012F01B0E5A
:10064000136E43DF0550090815E3FE0EBDDD450EB0
:10065000BBDD1A0EB9DD300E9EA8FED7AD6EFE0EC4
:10066000B3DD450EB1DD1B0EAFDD05C012F01B0E74
:10067000136E2BDF055009080BE2FE0EA5DD450EBB
:10068000A3DD1A0EA1DD05C012F01B0E136E1DDFD7
:100690000650090813E3FE0E97DD450E95DD200E8A
:1006A00093DD300E9EA8FED7AD6EFE0E8DDD230EBF
:1006B0008BDD06C012F01B0E136E07DF0650090813
:1006C0000BE2FE0E81DD450E7FDD200E7DDD06C0D6
:1006D00012F01B0E136EF9DE0550090815E3FE0E2D
:1006E00073DD450E71DD230E6FDD300E9EA8FED743
:1006F000AD6EFE0E69DD450E67DD240E65DD05C0BD
:1007000012F01B0E136EE1DE055009080BE2FE0E1F
:100710005BDD450E59DD230E57DD05C012F01B0EC3
:10072000136ED3DE0450090815E3FE0E4DDD450EB1
:100730004BDD260E49DD300E9EA8FED7AD6EFE0EB7
:1007400043DD450E41DD270E3FDD04C012F01B0ED8
:10075000136EBBDE045009080BE2FE0E35DD450EBC
:1007600033DD260E31DD04C012F01B0E136EADDE3C
:10077000FE0E2ADD450E28DD590E26DD0A2C05D099
:10078000040EF66E000EF76E37DD0A50020805E122
:10079000080EF66E000EF76E2FDD0A50030805E115
:1007A0000C0EF66E000EF76E27DD0A50040805E108
:1007B000100EF66E000EF76E1FDD0A50050805E1FB
:1007C000140EF66E000EF76E17DD0A50060805E1EE
:1007D000180EF66E000EF76E0FDD0A50070805E1E1
:1007E0001C0EF66E000EF76E07DDFE0EEDDC450EFC
:1007F000EBDC5D0EE9DC082C05D0200EF66E000E59
:10080000F76EFADC0850020805E1240EF66E000EC1
:10081000F76EF2DC0850030805E1280EF66E000EB4
:10082000F76EEADC0850040805E12C0EF66E000EA7
:10083000F76EE2DC0850050805E1300EF66E000E9A
:10084000F76EDADC0850060805E1340EF66E000E8D
:10085000F76ED2DC0850070805E1380EF66E000E80
:10086000F76ECADC0850080805E13C0EF66E000E73
:10087000F76EC2DC0850090805E1400EF66E000E66
:10088000F76EBADC08500A0805E1440EF66E000E59
:10089000F76EB2DC08500B0805E1480EF66E000E4C
:1008A000F76EAADC08500C0805E14C0EF66E000E3F
:1008B000F76EA2DCFE0E88DC450E86DC600E84DC62
:1008C000200E9EA8FED7AD6E07C012F01B0E136E51
:1008D000FCDD200E9EA8FED7AD6E200E9EA8FED792
:1008E000AD6ED4EF04F09488030E006E002EFED798
:1008F0009486030E006E002EFED78B989498030EFC
:10090000006E002EFED78B969496D00E126EB2DC3F
:10091000126AB0DC9488030E006E002EFED7948617
:10092000030E006E002EFED782A6FED78B989498F9
:10093000030E006E002EFED78B969496D10E126E8B
:1009400099DC010E006ECCDC01C004F0010E006EDB
:10095000C7DC01C005F0010E006EC2DC01C006F06C
:10096000010E006EBDDC01C00AF0010E006EB8DCA5
:1009700001C007F0010E006EB3DC01C008F0006A90
:10098000AFDC01C009F094980000948682A6FED7DF
:10099000030E006E002EFED700D000009488030ED8
:1009A000006E002EFED7C7D5640E136E11DC7DEFEE
:1009B00009F00900F6CF13F0F7CF14F0F5509EA818
:1009C000FED7AD6E13C0F6FF14C0F7FF122EF1D79D
:1009D00012009488030E006E002EFED79486030E3C
:1009E000006E002EFED78B989498030E006E002E9A
:1009F000FED78B969496D00E126E3CDC020E126ED1
:100A000039DC06C012F036DC94980000948682A689
:100A1000FED7030E006E002EFED700D00000948893
:100A2000030E006E002EFED70A0E136EE8EC00F0E7
:100A3000E3EF06F09488030E006E002EFED7948636
:100A4000030E006E002EFED78B989498030E006E56
:100A5000002EFED78B969496D00E126E0BDC010EF4
:100A6000126E08DC05C012F005DC94980000948634
:100A700082A6FED7030E006E002EFED700D0000027
:100A80009488030E006E002EFED70A0E136EE8EC5B
:100A900000F05AEF07F09488030E006E002EFED788
:100AA0009486030E006E002EFED78B989498030E4A
:100AB000006E002EFED78B969496D00E126E3AECF6
:100AC00001F0126A3AEC01F0126A3AEC01F09498E3
:100AD0000000948682A6FED7030E006E002EFED77D
:100AE00000D000009488030E006E002EFED70A0E80
:100AF000136EE8EC00F05BEF07F09488030E006ED5
:100B0000002EFED79486030E006E002EFED78B9823
:100B10009498030E006E002EFED78B969496D00EFE
:100B2000126E3AEC01F0030E126E3AEC01F00AC0BC
:100B300012F03AEC01F094980000948682A6FED759
:100B4000030E006E002EFED700D000009488030E26
:100B5000006E002EFED70A0E136EE8EC00F0D8EF00
:100B600007F09488030E006E002EFED79486030EC5
:100B7000006E002EFED78B989498030E006E002E08
:100B8000FED78B969496D00E126E3AEC01F0050EBD
:100B9000126E3AEC01F008C012F03AEC01F09498B1
:100BA0000000948682A6FED7030E006E002EFED7AC
:100BB00000D000009488030E006E002EFED70A0EAF
:100BC000136EE8EC00F046EF08F09488030E006E18
:100BD000002EFED79486030E006E002EFED78B9853
:100BE0009498030E006E002EFED78B969496D00E2E
:100BF000126E3AEC01F0040E126E3AEC01F007C0EE
:100C000012F03AEC01F094980000948682A6FED788
:100C1000030E006E002EFED700D000009488030E55
:100C2000006E002EFED70A0E136EE8EC00F0B0EF57
:100C300008F09488030E006E002EFED79486030EF3
:100C4000006E002EFED78B989498030E006E002E37
:100C5000FED78B969496D00E126E3AEC01F0090EE8
:100C6000126E3AEC01F00CC012F03AEC01F09498DC
:100C70000000948682A6FED7030E006E002EFED7DB
:100C800000D000009488030E006E002EFED70A0EDE
:100C9000136EE8EC00F01DEF09F0010E0F6E936883
:100CA0008150070B106E020E126EFA0E136EE8ECF6
:100CB00000F0122EFAD71050070A10E0010AD8B43B
:100CC00092D0030AD8B407D1010AD8B481D1070A57
:100CD000D8B4ECD1010AD8B453D2BFD2010E116EF0
:100CE000FE0EE4EC00F0510EE4EC00F00F52D8B42C
:100CF0007AD0FE0EE4EC00F0450EE4EC00F0000EBD
:100D0000E4EC00F0780EF66E000EF76EFCEC00F0EE
:100D1000FE0EE4EC00F0450EE4EC00F0400EE4ECD6
:100D200000F08C0EF66E000EF76EFCEC00F0FE0E7E
:100D3000E4EC00F0450EE4EC00F0140EE4EC00F0FE
:100D4000A00EF66E000EF76EFCEC00F0FE0EE4EC6A
:100D500000F0450EE4EC00F0540EE4EC00F0B20EAE
:100D6000F66E000EF76E0B0E126E23DE11C012F03F
:100D70001B0E136E65EC02F0640E136EE8EC00F0CF
:100D8000938881B805D0112AC80E136EE8EC00F0E4
:100D90001150180801E2116A938A81BA23D011C058
:100DA00014F00A0E156E51EC02F00138126EF00EBE
:100DB000121611C014F00A0E156E51EC02F000501C
:100DC0001210066E06D60F6A116AFE0EE4EC00F0F1
:100DD000510EE4EC00F0C80E136EE8EC00F00DECE0
:100DE00001F03DD283D7FE0EE4EC00F0510EE4ECAE
:100DF00000F00F5270E0FE0EE4EC00F0450EE4EC63
:100E000000F0000EE4EC00F0C00EF66E000EF76E7F
:100E1000FCEC00F0FE0EE4EC00F0450EE4EC00F01B
:100E2000400EE4EC00F0D40EF66E000EF76EFCEC13
:100E300000F0640E136EE8EC00F0FE0EE4EC00F03F
:100E4000450EE4EC00F0540EE4EC00F0EA0EF66E11
:100E5000000EF76E0D0E126EACDD11C012F01B0EFF
:100E6000136E65EC02F0640E136EE8EC00F09388EC
:100E700081B805D0112AC80E136EE8EC00F01150AD
:100E80003B0801E2116A938A81BA24D011C014F0A0
:100E90000A0E156E51EC02F00138126EF00E1216A9
:100EA00011C014F00A0E156E51EC02F00050121031
:100EB000056EC0D5F0D50F6A116AFE0EE4EC00F0A5
:100EC000510EE4EC00F0C80E136EE8EC00F00DECEF
:100ED00001F0C5D18ED7010E116EFE0EE4EC00F0CC
:100EE000510EE4EC00F0C80E136EE8EC00F00F5267
:100EF0006FE0FE0EE4EC00F0450EE4EC00F0000EB6
:100F0000E4EC00F0FA0EF66E000EF76EFCEC00F06A
:100F1000FE0EE4EC00F0450EE4EC00F0400EE4ECD4
:100F200000F0100EF66E010EF76EFCEC00F0FE0EF7
:100F3000E4EC00F0450EE4EC00F0540EE4EC00F0BC
:100F4000200EF66E010EF76E070E126E32DD11C026
:100F500012F01B0E136E65EC02F0640E136EE8ECDB
:100F600000F0938881B809D0112A020E126E960EF5
:100F7000136EE8EC00F0122EFAD71150070801E2C8
:100F8000116A938A81BA23D011C014F00A0E156E2B
:100F900051EC02F00138126EF00E121611C014F06E
:100FA0000A0E156E51EC02F0005012100A6EA5D513
:100FB0000F6A116AFE0EE4EC00F0510EE4EC00F052
:100FC000C80E136EE8EC00F00DEC01F048D18FD79D
:100FD000010E116EFE0EE4EC00F0510EE4EC00F098
:100FE000C80E136EE8EC00F00F5260E0FE0EE4EC69
:100FF00000F0450EE4EC00F0000EE4EC00F02A0EE8
:10100000F66E010EF76EFCEC00F0FE0EE4EC00F064
:10101000450EE4EC00F0540EE4EC00F03C0EF66EED
:10102000010EF76E0A0E126EC4DC11C012F01B0E18
:10103000136E65EC02F0640E136EE8EC00F093881A
:1010400081B809D0112A020E126E960E136EE8ECCA
:1010500000F0122EFAD711500C0801E2116A938A9F
:1010600081BA23D011C014F00A0E156E51EC02F0B3
:101070000138126EF00E121611C014F00A0E156E21
:1010800051EC02F000501210086E6BD50F6A116A15
:10109000FE0EE4EC00F0510EE4EC00F0C80E136E0E
:1010A000E8EC00F00DEC01F0DAD09ED7010E116EE5
:1010B000FE0EE4EC00F0510EE4EC00F0C80E136EEE
:1010C000E8EC00F00F525CE0FE0EE4EC00F0450EA0
:1010D000E4EC00F0000EE4EC00F04A0EF66E010EB7
:1010E000F76EFCEC00F0FE0EE4EC00F0450EE4ECD4
:1010F00000F0540EE4EC00F05A0EF66E010EF76E9E
:10110000090E126E56DC11C012F01B0E136E65EC48
:1011100002F0640E136EE8EC00F0938881B805D0FD
:10112000112AC80E136EE8EC00F011501F0801E2FE
:10113000116A938A81BA23D011C014F00A0E156E79
:1011400051EC02F00138126EF00E121611C014F0BC
:101150000A0E156E51EC02F000501210076E35D5D4
:101160000F6A116AFE0EE4EC00F0510EE4EC00F0A0
:10117000C80E136EE8EC00F00DEC01F070D0A2D7B1
:10118000010E116EFE0EE4EC00F0510EE4EC00F0E6
:10119000C80E136EE8EC00F00F525FE0FE0EE4ECB8
:1011A00000F0450EE4EC00F0000EE4EC00F0660EFA
:1011B000F66E010EF76EFCEC00F0FE0EE4EC00F0B3
:1011C000450EE4EC00F0400EE4EC00F0780EF66E14
:1011D000010EF76EFCEC00F0640E136EE8EC00F00C
:1011E000FE0EE4EC00F0450EE4EC00F0540EE4ECEE
:1011F00000F08A0EF66E010EF76E120E126ED9EC2A
:1012000004F011C012F01B0E136E65EC02F0640EB8
:10121000136EE8EC00F0938881B805D0112AC80E4F
:10122000136EE8EC00F01150090801E2116A938A8C
:1012300081BA12D011C00CF0FCD40F6A116AFE0EF4
:10124000E4EC00F0510EE4EC00F0C80E136EE8EC94
:1012500000F00DEC01F003D09FD70F6A116A81EF07
:1012600009F0F86AD09EB896190EAF6EA60EAC6E55
:10127000900EAB6E0E6A0D6A0F6A116A0F01386B21
:10128000396B3A6B776A786A796AFE0E0001E4EC92
:1012900000F0610EE4EC00F0040EE4EC00F00C0E43
:1012A000126EFA0E136EE8EC00F0122EFAD7FE0E54
:1012B000E4EC00F0410EE4EC00F0FE0EE4EC00F093
:1012C000510EE4EC00F0FE0EE4EC00F0530EE4EC02
:1012D00000F0080EE4EC00F0FE0EE4EC00F0520E1C
:1012E000E4EC00F0270EE4EC00F00DEC01F0A3EFCD
:1012F00001F008EF02F073EF04F0938681B601D09D
:06130000CCD4F9D7030074
:020000040030CA
:0E00000000E11E3C00BF81000FC00FE00F406A
:00000001FF
;PIC18F26K22
;CRC=3501  CREATED="11-Mar-24 15:58"
