:10000000EBEF04F053554E004D4F4E005455450054
:100010005745440054485500465249005341540046
:100020004A414E00464542004D4152004150520067
:100030004D4159004A554E004A554C004155470024
:10004000534550004F4354004E4F56004445430023
:10005000574239495853205554430000434C4F43AD
:100060004B0055542020203A2020000043542020EB
:10007000203A20203A2020004872732061726520C7
:100080003234687220666F726D617400487273203A
:100090006172652043542074696D65205554430096
:1000A00074696D65206973206175746F6D61746921
:1000B000630020486F757273203D2D3E202575002A
:1000C0005365632773206172652073657420746FB4
:1000D000203020007768656E206D696E277320617F
:1000E00072652073617665640000204D696E7574D9
:1000F0006573203D2D3E20257500313D53756E32D0
:100100003D4D6F6E333D547565343D576564000059
:10011000353D546875363D467269373D536174000C
:10012000446179203D2D3E257500456E7465722031
:100130006D6F6E746820312D31320000204D6F6E6E
:100140007468203D2D3E25750000456E7465722053
:100150004461746520312D33310020446174652081
:100160003D2D3E257500486F7572732D3E25750037
:10017000204D696E2D3E00002020574239495853CA
:100180002055544320434C4F434B202000006D6FBB
:100190006E7468203D2025640000627574746F6E73
:1001A00020484954212100009EA8FED7AD6E1200C0
:1001B000EA6A4A0EE96EEF500DE0060E016E006A23
:1001C000002EFED7012EFBD77B0E006E002EFED731
:1001D000EF2EF3D712000900F5520DE0F6CF49F0EB
:1001E000F7CF4AF0F5509EA8FED7AD6E49C0F6FF96
:1001F0004AC0F7FFF0D71200FE0ED6DF450ED4DF5F
:10020000050ED2DF500EF66E000EF76EE4DFFE0E26
:10021000CBDF450EC9DF470EC7DF5C0EF66E000E62
:10022000F76ED9DFFE0EC0DF450EBEDF140EBCDF59
:10023000620EF66E000EF76ECEDFFE0EB5DF450ED7
:10024000B3DF1D0EB1DF6C0EF66E000EF76EC3DF6E
:1002500012009EAAFED7ABCF04F0AECF01F004A2ED
:1002600002D0AB98AB8862EF05F00900F6CF4AF0F8
:10027000F7CF4BF0F5509EA8FED7AD6E4AC0F6FF03
:100280004BC0F7FF492EF1D712004C50016A4B5C6E
:1002900003E24BC000F00CD0006A080E4D6E4B36E6
:1002A00000364C50005CD8B0006E01364D2EF7D7AA
:1002B0001200015049C04BF0640E4C6EE6DF00C0E6
:1002C00049F00150300E07E14AA20DD04AB60BD0DA
:1002D0004AB8200E03D04A964A984A800126015017
:1002E0009EA8FED7AD6E49C04BF00A0E4C6ECDDF16
:1002F00000C049F00150300E06E14AB609D04AA0CC
:1003000007D04AB8200E012601509EA8FED7AD6E38
:10031000300E492649509EA8FED7AD6E1200080E39
:10032000016E190E006E002EFED78B969496190E54
:10033000006E002EFED749368B98D8B09488D8A08E
:100340009498948682A6FED7012EEBD7190E006EE4
:10035000002EFED78B96949600009488190E006E9E
:10036000002EFED7190E006E002EFED7948682A6B0
:10037000FED7016A190E006E002EFED782B80180EA
:100380008B9694968B98949812009488190E006E10
:10039000002EFED79486190E006E002EFED78B9885
:1003A0009498190E006E002EFED78B969496D00E60
:1003B000496EB5DF020E496EB2DF07C049F0AFDF0C
:1003C00094980000948682A6FED7190E006E002E27
:1003D000FED700D000009488190E006E002EFED7C4
:1003E0000A0E4A6EE5DE5FEF03F09488190E006E88
:1003F000002EFED79486190E006E002EFED78B9825
:100400009498190E006E002EFED78B969496D00EFF
:10041000496E85DF010E496E82DF06C049F07FDF3D
:1004200094980000948682A6FED7190E006E002EC6
:10043000FED700D000009488190E006E002EFED763
:100440000A0E4A6EB5DEBFEF03F09488190E006EF7
:10045000002EFED79486190E006E002EFED78B98C4
:100460009498190E006E002EFED78B969496D00E9F
:10047000496E55DF496A53DF496A51DF949800009D
:10048000948682A6FED7190E006E002EFED700D0ED
:1004900000009488190E006E002EFED70A0E4A6ED8
:1004A00087DEC0EF03F09488190E006E002EFED791
:1004B0009486190E006E002EFED78B989498190E14
:1004C000006E002EFED78B969496D00E496E27DFD5
:1004D000030E496E24DF0BC049F021DF9498000021
:1004E000948682A6FED7190E006E002EFED700D08D
:1004F00000009488190E006E002EFED70A0E4A6E78
:1005000057DE26EF04F09488190E006E002EFED7F9
:100510009486190E006E002EFED78B989498190EB3
:10052000006E002EFED78B969496D00E496EF7DEA5
:10053000050E496EF4DE09C049F0F1DE9498000022
:10054000948682A6FED7190E006E002EFED700D02C
:1005500000009488190E006E002EFED70A0E4A6E17
:1005600027DE81EF04F09488190E006E002EFED76E
:100570009486190E006E002EFED78B989498190E53
:10058000006E002EFED78B969496D00E496EC7DE75
:10059000040E496EC4DE08C049F0C1DE9498000024
:1005A000948682A6FED7190E006E002EFED700D0CC
:1005B00000009488190E006E002EFED70A0E4A6EB7
:1005C000F7DDD8EF04F0010E0F6E93688150070B32
:1005D000106E020E496EFA0E4A6EEADD492EFBD706
:1005E0001050070A0DE0010AD8B475D0030AD8B438
:1005F000D3D0010AD8B436D1070AD8B48ED1E7D106
:10060000010E116EFE0ED0DD510ECEDD0F52D8B4AC
:1006100062D0FE0EC9DD450EC7DD000EC5DD780EC9
:10062000F66E000EF76ED7DDFE0EBEDD450EBCDDAC
:10063000400EBADD8C0EF66E000EF76ECCDDFE0EAF
:10064000B3DD450EB1DD140EAFDDA00EF66E000E6B
:10065000F76EC1DDFE0EA8DD450EA6DD540EA4DD4D
:10066000B20EF66E000EF76E0B0E496EFEDD11C077
:1006700049F01B0E4A6E1DDE640E4A6E99DD9388AA
:1006800081B804D0112AC80E4A6E92DD11501808A4
:1006900001E2116A938A81BA1DD011C04BF00A0E93
:1006A0004C6EF3DD0138496EF00E491611C04BF067
:1006B0000A0E4C6EEADD00504910076E66D60F6ACE
:1006C000116AFE0E71DD510E6FDDC80E4A6E70DDCF
:1006D00093DD7FD19BD7FE0E67DD510E65DD0F5296
:1006E0005BE0FE0E61DD450E5FDD000E5DDDC00EE0
:1006F000F66E000EF76E6FDDFE0E56DD450E54DD14
:10070000400E52DDD40EF66E000EF76E64DD640E00
:100710004A6E4EDDFE0E48DD450E46DD540E44DDCC
:10072000EA0EF66E000EF76E0D0E496E9EDD11C0DC
:1007300049F01B0E4A6EBDDD640E4A6E39DD9388AA
:1007400081B804D0112AC80E4A6E32DD11503B0820
:1007500001E2116A938A81BA1ED011C04BF00A0ED1
:100760004C6E93DD0138496EF00E491611C04BF006
:100770000A0E4C6E8ADD00504910066E36D665D6DC
:100780000F6A116AFE0E10DD510E0EDDC80E4A6EA4
:100790000FDD32DD1ED1A3D7010E116EFE0E04DD7A
:1007A000510E02DDC80E4A6E03DD0F525BE0FE0EF5
:1007B000FBDC450EF9DC000EF7DCFA0EF66E000EDF
:1007C000F76E09DDFE0EF0DC450EEEDC400EECDCD3
:1007D000100EF66E010EF76EFEDCFE0EE5DC450E29
:1007E000E3DC540EE1DC200EF66E010EF76E070E10
:1007F000496E3BDD11C049F01B0E4A6E5ADD640E96
:100800004A6ED6DC938881B808D0112A020E496E50
:10081000960E4A6ECDDC492EFBD71150070801E237
:10082000116A938A81BA1DD011C04BF00A0E4C6E2A
:100830002CDD0138496EF00E491611C04BF00A0E3E
:100840004C6E23DD005049100B6E2DD60F6A116AD5
:10085000FE0EAADC510EA8DCC80E4A6EA9DCCCDC68
:10086000B8D0A3D7010E116EFE0E9EDC510E9CDC9B
:10087000C80E4A6E9DDC0F5250E0FE0E95DC450E10
:1008800093DC000E91DC2A0EF66E010EF76EA3DCEF
:10089000FE0E8ADC450E88DC540E86DC3C0EF66EBD
:1008A000010EF76E0A0E496EE0DC11C049F01B0E16
:1008B0004A6EFFDC640E4A6E7BDC938881B808D0F8
:1008C000112A020E496E960E4A6E72DC492EFBD733
:1008D00011500C0801E2116A938A81BA1DD011C02F
:1008E0004BF00A0E4C6ED1DC0138496EF00E491601
:1008F00011C04BF00A0E4C6EC8DC00504910096E56
:1009000002D60F6A116AFE0E4FDC510E4DDCC80E86
:100910004A6E4EDC71DC5DD0AED7010E116EFE0E5C
:1009200043DC510E41DCC80E4A6E42DC0F524FE0F0
:10093000FE0E3ADC450E38DC000E36DC4A0EF66E52
:10094000010EF76E48DCFE0E2FDC450E2DDC540E3A
:100950002BDC5A0EF66E010EF76E090E496E85DC21
:1009600011C049F01B0E4A6EA4DC640E4A6E20DCF6
:10097000938881B804D0112AC80E4A6E19DC115030
:100980001F0801E2116A938A81BA20D011C04BF08E
:100990000A0E4C6E7ADC0138496EF00E491611C011
:1009A0004BF00A0E4C6E71DC00504910086EDBD51E
:1009B0000F6A116AFE0ED4EC00F0510ED4EC00F078
:1009C000C80E4A6ED8EC00F017DC03D0AFD70F6A20
:1009D000116A80EF05F0F86AD09E046AB886080EA6
:1009E000AF6E020EB06EA60EAC6E900EAB6E000037
:1009F00000000E6A0D6A0F6A116A126AC150C00BBC
:100A00000F09C16E070EB46E05D00200130000324C
:100A100040160000000EF86E0A0EF76E0A0EF66E13
:100A20000900F550006E000A13E00900F550016E50
:100A3000E8BE05D03F0BEA6E0900F5CFE9FF01BC27
:100A4000090001AC0900F5CFEEFF004EE9D7F9D758
:100A5000F86AFE0ED4EC00F0610ED4EC00F0040E47
:100A6000D4EC00F00C0E496EFA0E4A6ED8EC00F091
:100A7000492EFAD7FE0ED4EC00F0410ED4EC00F073
:100A8000FE0ED4EC00F0510ED4EC00F0FE0ED4ECCF
:100A900000F0530ED4EC00F0080ED4EC00F0FE0E83
:100AA000D4EC00F0520ED4EC00F0270ED4EC00F0A1
:100AB000FCEC00F09EAA1AD0EA6A160EE96EED6A06
:100AC00029EF01F001C0ECFF0D0EEF5CF9E1EC6ADB
:100AD00016C015F015509EA8FED7AD6E0D0E9EA83F
:100AE000FED7AD6E0A0E9EA8FED7AD6E938681B678
:100AF00007D09A0EF66E010EF76EEBEC00F063D5A0
:040B0000D9D7FFD76B
:020000040030CA
:0E00000000C2191E008700000FC00FE00F4065
:00000001FF
;PIC18F4520
;CRC=9200  CREATED="23-Mar-24 17:49"
