:10000000FEEF07F053554E004D4F4E00545545003E
:100010005745440054485500465249005341540046
:100020004A414E00464542004D4152004150520067
:100030004D4159004A554E004A554C004155470024
:10004000534550004F4354004E4F56004445430023
:10005000574239495853205554430000434C4F43AD
:100060004B0055542020203A2020000043542020EB
:10007000203A20203A2020004872732061726520C7
:100080003234687220666F726D617400487273203A
:100090006172652043542074696D65205554430096
:1000A00074696D65206973206175746F6D61746921
:1000B000630020486F757273203D2D3E202575002A
:1000C0005365632773206172652073657420746FB4
:1000D000203020007768656E206D696E277320617F
:1000E00072652073617665640000204D696E7574D9
:1000F0006573203D2D3E20257500313D53756E32D0
:100100003D4D6F6E333D547565343D576564000059
:10011000353D546875363D467269373D536174000C
:10012000446179203D2D3E257500456E7465722031
:100130006D6F6E746820312D31320000204D6F6E6E
:100140007468203D2D3E25750000456E7465722053
:100150004461746520312D33310020446174652081
:100160003D2D3E257500486F7572732D3E25750037
:10017000204D696E2D3E00002020574239495853CA
:100180002055544320434C4F434B202000009EA851
:10019000FED7AD6E1200EA6A120EE96EEF500EE065
:1001A000010E016E006A002EFED7012EFBD74A0E0B
:1001B000006E002EFED700D0EF2EF2D712000900FD
:1001C000F5520DE0F6CF11F0F7CF12F0F5509EA8E2
:1001D000FED7AD6E11C0F6FF12C0F7FFF0D71200C8
:1001E000FE0ED5DF450ED3DF050ED1DF500EF66EC5
:1001F000000EF76EE4DFFE0ECADF450EC8DF470EC5
:10020000C6DF5C0EF66E000EF76ED9DFFE0EBFDFA6
:10021000450EBDDF140EBBDF620EF66E000EF76EEC
:10022000CEDFFE0EB4DF450EB2DF1D0EB0DF6C0E6A
:10023000F66E000EF76EC3DF1200080E016E030E9D
:10024000006E002EFED78B969496030E006E002E45
:10025000FED711368B98D8B09488D8A094989486FD
:1002600082A6FED7012EEBD7030E006E002EFED71E
:100270008B96949600009488030E006E002EFED795
:10028000030E006E002EFED7948682A6FED7016A6A
:10029000030E006E002EFED782B801808B969496D6
:1002A0008B9894981200080E126E00C013F0948878
:1002B000030E006E002EFED7948682A6FED782B86B
:1002C000D88082A8D8900136030E006E002EFED78B
:1002D00094968B96122EEBD79488030E006E002E08
:1002E000FED78B981350D8A494980000948682A6C9
:1002F000FED7030E006E002EFED78B969496030E4B
:10030000006E002EFED78B98949812009488030EEE
:10031000006E002EFED79486030E006E002EFED7D0
:100320008B989498030E006E002EFED78B969496B1
:10033000D00E116E82DF116A80DF9488030E006E8A
:10034000002EFED79486030E006E002EFED782A6E6
:10035000FED78B989498030E006E002EFED78B96D6
:100360009496D10E116E69DF010E006E9CDF01C004
:1003700004F0010E006E97DF01C005F0010E006E63
:1003800092DF01C006F0010E006E8DDF01C00AF0A1
:10039000010E006E88DF01C007F0010E006E83DFE2
:1003A00001C008F0006A7FDF01C009F094980000E6
:1003B000948682A6FED7030E006E002EFED700D0D4
:1003C00000009488030E006E002EFED70A0E126EF7
:1003D000E2DE46EF08F01450016A135C03E213C03A
:1003E00000F00CD0006A080E156E1336003614505B
:1003F000005CD8B0006E0136152EF7D71200015000
:1004000011C013F0640E146EE6DF00C011F001504D
:10041000300E07E112A20DD012B60BD012B8200E8A
:1004200003D0129612981280012601509EA8FED782
:10043000AD6E11C013F00A0E146ECDDF00C011F0C6
:100440000150300E06E112B609D012A007D012B842
:10045000200E012601509EA8FED7AD6E300E11264B
:1004600011509EA8FED7AD6E12000438006E0F0E1C
:10047000001600500A0DF3CF11F004500F0B112499
:10048000046E0538006E0F0E001600500A0DF3CFF3
:1004900011F005500F0B1124056E0638006E0F0E7B
:1004A000001600500A0DF3CF11F006500F0B112467
:1004B000066E0738006E0F0E001600500A0DF3CFBF
:1004C00011F007500F0B1124076E0838006E0F0E45
:1004D000001600500A0DF3CF11F008500F0B112435
:1004E000086E0938006E0F0E001600500A0DF3CF8B
:1004F00011F009500F0B1124096E060E06240B6E25
:100500000B50090813E3FE0E42DE450E40DE170EC7
:100510003EDE300E9EA8FED7AD6EFE0E38DE180E03
:1005200036DE0BC011F01B0E126E69DF0B5009088E
:100530000BE2FE0E2CDE450E2ADE170E28DE0BC067
:1005400011F01B0E126E5BDF0550090815E3FE0E5D
:100550001EDE450E1CDE1A0E1ADE300E9EA8FED7D9
:10056000AD6EFE0E14DE450E12DE1B0E10DE05C053
:1005700011F01B0E126E43DF055009080BE2FE0E50
:1005800006DE450E04DE1A0E02DE05C011F01B0E5B
:10059000126E35DF0650090813E3FE0EF8DD450E36
:1005A000F6DD200EF4DD300E9EA8FED7AD6EFE0EF9
:1005B000EEDD230EECDD06C011F01B0E126E1FDF08
:1005C000065009080BE2FE0EE2DD450EE0DD200ECE
:1005D000DEDD06C011F01B0E126E11DF055009089A
:1005E00015E3FE0ED4DD450ED2DD230ED0DD300E38
:1005F0009EA8FED7AD6EFE0ECADD450EC8DD240EE8
:10060000C6DD05C011F01B0E126EF9DE055009089B
:100610000BE2FE0EBCDD450EBADD230EB8DD05C0D3
:1006200011F01B0E126EEBDE0450090815E3FE0EEE
:10063000AEDD450EACDD260EAADD300E9EA8FED73F
:10064000AD6EFE0EA4DD450EA2DD270EA0DD04C0BA
:1006500011F01B0E126ED3DE045009080BE2FE0EE1
:1006600096DD450E94DD260E92DD04C011F01B0EC2
:10067000126EC5DEFE0E8BDD450E89DD590E87DD5F
:100680000A2C05D0040EF66E000EF76E98DD0A50A7
:10069000020805E1080EF66E000EF76E90DD0A50B6
:1006A000030805E10C0EF66E000EF76E88DD0A50A9
:1006B000040805E1100EF66E000EF76E80DD0A509C
:1006C000050805E1140EF66E000EF76E78DD0A508F
:1006D000060805E1180EF66E000EF76E70DD0A5082
:1006E000070805E11C0EF66E000EF76E68DDFE0EC3
:1006F0004EDD450E4CDD5D0E4ADD082C05D0200E8A
:10070000F66E000EF76E5BDD0850020805E1240E60
:10071000F66E000EF76E53DD0850030805E1280E53
:10072000F66E000EF76E4BDD0850040805E12C0E46
:10073000F66E000EF76E43DD0850050805E1300E39
:10074000F66E000EF76E3BDD0850060805E1340E2C
:10075000F66E000EF76E33DD0850070805E1380E1F
:10076000F66E000EF76E2BDD0850080805E13C0E12
:10077000F66E000EF76E23DD0850090805E1400E05
:10078000F66E000EF76E1BDD08500A0805E1440EF8
:10079000F66E000EF76E13DD08500B0805E1480EEB
:1007A000F66E000EF76E0BDD08500C0805E14C0EDE
:1007B000F66E000EF76E03DDFE0EE9DC450EE7DC9B
:1007C000600EE5DC200E9EA8FED7AD6E07C011F0CE
:1007D0001B0E126E14DE4EEF04F09488030E006EB2
:1007E000002EFED79486030E006E002EFED78B9847
:1007F0009498030E006E002EFED78B969496D00E22
:10080000116E1BDD116A19DD9488030E006E002E37
:10081000FED79486030E006E002EFED782A6FED76A
:100820008B989498030E006E002EFED78B969496AC
:10083000D10E116E02DD010E006E35DD01C004F037
:10084000010E006E30DD01C005F0010E006E2BDDE3
:1008500001C006F0010E006E26DD01C00AF0010E97
:10086000006E21DD01C007F0010E006E1CDD01C02D
:1008700008F0006A18DD01C009F094980000948621
:1008800082A6FED7030E006E002EFED700D0000019
:100890009488030E006E002EFED7E7D5640E126E0C
:1008A0007ADC48EF08F00900F6CF12F0F7CF13F02A
:1008B000F5509EA8FED7AD6E12C0F6FF13C0F7FF2D
:1008C000112EF1D712009488030E006E002EFED771
:1008D0009486030E006E002EFED78B989498030E1C
:1008E000006E002EFED78B969496D00E116EA5DC6E
:1008F000020E116EA2DC06C011F09FDC949800007D
:10090000948682A6FED7030E006E002EFED700D07E
:1009100000009488030E006E002EFED70A0E126EA1
:100920003ADC1DEF06F09488030E006E002EFED711
:100930009486030E006E002EFED78B989498030EBB
:10094000006E002EFED78B969496D00E116E75DC3D
:10095000010E116E72DC05C011F06FDC949800007E
:10096000948682A6FED7030E006E002EFED700D01E
:1009700000009488030E006E002EFED70A0E126E41
:100980000ADC94EF06F09488030E006E002EFED76A
:100990009486030E006E002EFED78B989498030E5B
:1009A000006E002EFED78B969496D00E116E45DC0D
:1009B000116A43DC116A41DC94980000948682A697
:1009C000FED7030E006E002EFED700D000009488E4
:1009D000030E006E002EFED70A0E126ECBEC00F056
:1009E00095EF06F09488030E006E002EFED79486D5
:1009F000030E006E002EFED78B989498030E006EA7
:100A0000002EFED78B969496D00E116E16DC030E38
:100A1000116E13DC0AC011F010DC9498000094866B
:100A200082A6FED7030E006E002EFED700D0000077
:100A30009488030E006E002EFED70A0E126ECBECC9
:100A400000F012EF07F09488030E006E002EFED720
:100A50009486030E006E002EFED78B989498030E9A
:100A6000006E002EFED78B969496D00E116E1DEC64
:100A700001F0050E116E1DEC01F008C011F01DEC27
:100A800001F094980000948682A6FED7030E006EB3
:100A9000002EFED700D000009488030E006E002EBA
:100AA000FED70A0E126ECBEC00F080EF07F09488B0
:100AB000030E006E002EFED79486030E006E002EED
:100AC000FED78B989498030E006E002EFED78B965F
:100AD0009496D00E116E1DEC01F0040E116E1DECFB
:100AE00001F007C011F01DEC01F09498000094860D
:100AF00082A6FED7030E006E002EFED700D00000A7
:100B00009488030E006E002EFED70A0E126ECBECF8
:100B100000F0EAEF07F0010E0E6E93688150070BAC
:100B20000F6E020E116EFA0E126ECBEC00F0112E4B
:100B3000FAD70F50070A0DE0010AD8B48ED0030A85
:100B4000D8B403D1010AD8B47DD1070AD8B4E8D10A
:100B500051D2010E106EFE0EC7EC00F0510EC7EC24
:100B600000F00E52D8B479D0FE0EC7EC00F0450E5E
:100B7000C7EC00F0000EC7EC00F0780EF66E000E29
:100B8000F76EDFEC00F0FE0EC7EC00F0450EC7EC90
:100B900000F0400EC7EC00F08C0EF66E000EF76E03
:100BA000DFEC00F0FE0EC7EC00F0450EC7EC00F0E5
:100BB000140EC7EC00F0A00EF66E000EF76EDFEC20
:100BC00000F0FE0EC7EC00F0450EC7EC00F0540E2E
:100BD000C7EC00F0B20EF66E000EF76E0B0E116E43
:100BE00062DE10C011F01B0E126E09DC640E126E74
:100BF000CBEC00F0938881B805D0102AC80E126E95
:100C0000CBEC00F01050180801E2106A938A81BA08
:100C100023D010C013F00A0E146EEBEC01F0013873
:100C2000116EF00E111610C013F00A0E146EEBECDC
:100C300001F000501110066E46D60E6A106AFE0EC4
:100C4000C7EC00F0510EC7EC00F0C80E126ECBECF2
:100C500000F0F0EC00F0D0D184D7FE0EC7EC00F02D
:100C6000510EC7EC00F00E5270E0FE0EC7EC00F023
:100C7000450EC7EC00F0000EC7EC00F0C00EF66E9B
:100C8000000EF76EDFEC00F0FE0EC7EC00F0450E34
:100C9000C7EC00F0400EC7EC00F0D40EF66E000E6C
:100CA000F76EDFEC00F0640E126ECBEC00F0FE0E7F
:100CB000C7EC00F0450EC7EC00F0540EC7EC00F096
:100CC000EA0EF66E000EF76E0D0E116EECDD10C022
:100CD00011F01B0E126EFFEC01F0640E126ECBECE5
:100CE00000F0938881B805D0102AC80E126ECBECA4
:100CF00000F010503B0801E2106A938A81BA24D0B8
:100D000010C013F00A0E146EEBEC01F00138116EF6
:100D1000F00E111610C013F00A0E146EEBEC01F079
:100D200000501110056EFFD52ED60E6A106AFE0E09
:100D3000C7EC00F0510EC7EC00F0C80E126ECBEC01
:100D400000F0F0EC00F058D18ED7010E106EFE0EC0
:100D5000C7EC00F0510EC7EC00F0C80E126ECBECE1
:100D600000F00E526FE0FE0EC7EC00F0450EC7EC2F
:100D700000F0000EC7EC00F0FA0EF66E000EF76EF3
:100D8000DFEC00F0FE0EC7EC00F0450EC7EC00F003
:100D9000400EC7EC00F0100EF66E010EF76EDFECA1
:100DA00000F0FE0EC7EC00F0450EC7EC00F0540E4C
:100DB000C7EC00F0200EF66E010EF76E070E116EF6
:100DC00072DD10C011F01B0E126EFFEC01F0640E0C
:100DD000126ECBEC00F0938881B809D0102A020E75
:100DE000116E960E126ECBEC00F0112EFAD7105049
:100DF000070801E2106A938A81BA23D010C013F069
:100E00000A0E146EEBEC01F00138116EF00E1116A3
:100E100010C013F00A0E146EEBEC01F0005011102C
:100E20000A6EE0D50E6A106AFE0EC7EC00F0510E95
:100E3000C7EC00F0C80E126ECBEC00F0F0EC00F046
:100E4000DBD08FD7010E106EFE0EC7EC00F0510EF6
:100E5000C7EC00F0C80E126ECBEC00F00E5260E052
:100E6000FE0EC7EC00F0450EC7EC00F0000EC7EC1C
:100E700000F02A0EF66E010EF76EDFEC00F0FE0EAB
:100E8000C7EC00F0450EC7EC00F0540EC7EC00F0C4
:100E90003C0EF66E010EF76E0A0E116E04DD10C0E8
:100EA00011F01B0E126EFFEC01F0640E126ECBEC13
:100EB00000F0938881B809D0102A020E116E960EA8
:100EC000126ECBEC00F0112EFAD710500C0801E294
:100ED000106A938A81BA23D010C013F00A0E146EE0
:100EE000EBEC01F00138116EF00E111610C013F08A
:100EF0000A0E146EEBEC01F000501110086EA3D531
:100F00000E6A106AFE0EC7EC00F0510EC7EC00F03E
:100F1000C80E126ECBEC00F0F0EC00F06DD09ED756
:100F2000010E106EFE0EC7EC00F0510EC7EC00F083
:100F3000C80E126ECBEC00F00E525CE0FE0EC7EC59
:100F400000F0450EC7EC00F0000EC7EC00F04A0EB2
:100F5000F66E010EF76EDFEC00F0FE0EC7EC00F04F
:100F6000450EC7EC00F0540EC7EC00F05A0EF66EBA
:100F7000010EF76E090E116E96DC10C011F01B0EFB
:100F8000126EFFEC01F0640E126ECBEC00F0938851
:100F900081B805D0102AC80E126ECBEC00F01050AC
:100FA0001F0801E2106A938A81BA23D010C013F09F
:100FB0000A0E146EEBEC01F00138116EF00E1116F2
:100FC00010C013F00A0E146EEBEC01F0005011107B
:100FD000076E6DD50E6A106AFE0EC7EC00F0510E5A
:100FE000C7EC00F0C80E126ECBEC00F0F0EC00F095
:100FF00003D0A2D70E6A106A4CEF08F0F86AD09EB0
:10100000B896190EAF6EA60EAC6E900EAB6E0D6A52
:101010000C6A0E6A106A0F01386B396B3A6B776A8B
:10102000786A796AFE0E0001C7EC00F0610EC7EC29
:1010300000F0040EC7EC00F00C0E116EFA0E126EEA
:10104000CBEC00F0112EFAD7FE0EC7EC00F0410EEB
:10105000C7EC00F0FE0EC7EC00F0510EC7EC00F03C
:10106000FE0EC7EC00F0530EC7EC00F0080EC7EC04
:1010700000F0FE0EC7EC00F0520EC7EC00F0270E99
:10108000C7EC00F0F0EC00F086EF01F0EDEF03F0BC
:0C109000938681B601D03FD5F9D703004C
:020000040030CA
:0E00000000E11E3C00BF81000FC00FE00F406A
:00000001FF
;PIC18F26K22
;CRC=9671  CREATED="06-Jan-24 12:22"
